S010000072656365697665722E73726563BF
S11300000C942A000C943F000C943F000C943F0085
S11300100C943F000C943F000C943F000C943F0060
S11300200C943F000C943F000C943F000C943F0050
S11300300C943F000C943F000C943F000C943F0040
S11300400C943F000C943F000C943F000C943F0030
S11300500C943F0011241FBECFE5D8E0DEBFCDBF16
S113006010E0A0E6B0E0E0EDF1E002C005900D92F2
S1130070A837B107D9F70E94A3000C94E6000C94AA
S113008000008BBBAA98A998A89A83EF91E00197E6
S1130090F1F700C00000A89883EF91E00197F1F711
S11300A000C0000008958BBBAA9AA998A89A83EF70
S11300B091E00197F1F700C00000A89883EF91E068
S11300C00197F1F700C0000008958FEF8ABB84BB4D
S11300D0A89883EF91E00197F1F700C0000088E34E
S11300E00E9441008CE00E94410081E00E94410096
S11300F083EF91E00197F1F700C0000086E00E94D1
S1130100410008950F931F93CF93FC0180818823AE
S113011059F08F01C0E00E945300CF5FF801EC0F4B
S1130120F11D80818111F7CFCF911F910F91089517
S113013080E18AB986E880BD83E389B908955F9B2D
S1130140FECF8CB10895CF93DF9300D000D01F92DF
S1130150CDB7DEB70E9498000E946500A39A7E0185
S113016025E0E20EF11CAB988E010F5F1F4F0E9439
S11301709F00F80181938F01EE15FF05C1F71D82E1
S113018080E690E00E94820080EC0E94410081E7BA
S113019090E00E948200CE0101960E94820085E7D1
S11301A090E00E948200AB9AFFEB27E289E0F150D5
S11301B020408040E1F700C0000081E00E9441003F
S11301C082E00E9441000E949F00CDCFF894FFCFAF
S11301D0656E74657265642070617373776F7264A1
S10B01E000697320002E0000E9
S9030000FC
