:100000000C942A000C9447000C9447000C945B0558
:100010000C9447000C9447000C9447000C94470044
:100020000C9447000C9447000C9447000C94470034
:100030000C9447000C9447000C9447000C94470024
:100040000C9447000C9447000C9447000C94470014
:100050000C94470011241FBECFE5D8E0DEBFCDBF12
:1000600011E0A0E6B0E0E4E1FEE002C005900D92F0
:10007000A035B107D9F721E0A0E5B1E001C01D929C
:10008000AB36B207E1F70E94D4050C9408070C9434
:10009000000085BB94989398909A83EF91E0019724
:1000A000F1F700C00000909883EF91E00197F1F71D
:1000B00000C00000089585BB949A9398909A83EFAE
:1000C00091E00197F1F700C00000909883EF91E074
:1000D0000197F1F700C0000008958FEF84BB81BB4A
:1000E000909883EF91E00197F1F700C0000088E35A
:1000F0000E9449008CE00E94490081E00E94490072
:1001000083EF91E00197F1F700C0000086E00E94C4
:10011000490008950F931F93CF93FC01808188239A
:1001200059F08F01C0E00E945B00CF5FF801EC0F37
:10013000F11D80818111F7CFCF911F910F9108950B
:1001400081E00E94490082E00E944900089580EF0A
:100150008ABB8BB38E6F8BBB8BB38E708BBB0895BA
:1001600087E893E10197F1F700C0000089B38E7032
:100170008E30B1F387E893E10197F1F700C00000FA
:1001800089B38E708E3061F38EEE8BBB99B39E7007
:100190009E3091F48EED8BBB99B39E709E3071F4BE
:1001A0008EEB8BBB99B39E709E3051F48EE78BBB68
:1001B00099B39E7083E005C080E003C081E001C078
:1001C00082E09C3059F490E0FC01EE0FFF1F8E0F8F
:1001D0009F1FFC01E959FF4F808117C09A3059F4E5
:1001E00090E0FC01EE0FFF1F8E0F9F1FFC01E959ED
:1001F000FF4F81810AC090E0FC01EE0FFF1F8E0FC0
:100200009F1FFC01E959FF4F82819BB39E609BBBFE
:100210000895E199FECF93709FBB8EBBE09A8DB39A
:100220000895E199FECF93709FBB8EBB6DBBE29AA0
:10023000E19A0895EF92FF921F93CF93DF93009777
:1002400069F07C01C0E0D0E010E0CE010E9409011D
:10025000180F2196EC16FD06C1F701C010E0812FA2
:100260008195DF91CF911F91FF90EF90089567E402
:1002700080E090E00E94110161E081E090E00E9446
:10028000110160E382E090E00E94110160E383E0ED
:1002900090E00E94110160E384E090E00E9411016F
:1002A00060E385E090E00E94110186E090E00E940A
:1002B0001A01682F86E090E00E94110108955F9274
:1002C0006F927F928F929F92AF92BF92CF92DF9266
:1002D000EF92FF920F931F93CF93DF938C0180E0F7
:1002E00090E00E940901873431F00E943701C80173
:1002F0000E945F0189C081E090E00E940901582EB0
:10030000C82FD0E0CC0FDD1FCC0FDD1FCE010E9427
:10031000E705F80191838083CE0102960E940901CE
:10032000682E552009F459C00F2EF3E0EF2EF12C62
:10033000F02DC2E0D0E0712C6E01F2E0CF1AD108AE
:10034000F801A080B180AC0CBD1CCE010E94090157
:10035000F50180834E01F1E08F1A9108F801A08029
:10036000B180A80CB91CC7010E940901F501808366
:10037000F801A080B180AC0EBD1ECE0102960E9495
:100380000901F5018083F801A080B180AE0CBF1C8B
:10039000CE0103960E940901F5018083F801808156
:1003A0009181DC01AC0FBD1FFC01EE0DFF1D3C91E6
:1003B0002081230FFC01EC0DFD1D3081230FFC017A
:1003C000E80DF91D9081822F890F680E7394249691
:1003D000F4E0EF0EF11C5710AFCF87E4850D680EE7
:1003E00091F08BE30E945B002FE38DE093E02150BE
:1003F00080409040E1F700C000000E943701C80132
:100400000E945F0101C0852DDF91CF911F910F9157
:10041000FF90EF90DF90CF90BF90AF909F908F9024
:100420007F906F905F900895DF92EF92FF920F930D
:100430001F93CF93DF93082FD62FC72F81E090E033
:100440000E940901D82E10E0000F111F000F111F8C
:10045000ED2EFC2EE80122960A5F1F4FF7016191F5
:100460007F01CE010E9411012196C017D107B1F77B
:100470000E94A000CD2DD0E0CC0FDD1FCC0FDD1FE2
:100480002296CE010E941A01682FCE010E9411010E
:10049000DF91CF911F910F91FF90EF90DF90089522
:1004A000AF92BF92DF92EF92FF920F931F93CF9381
:1004B000DF93D82FC92F81E090E00E940901D82E48
:1004C000E82EF12CEE0CFF1CEE0CFF1C0D2F1C2F48
:1004D000E7012296570186E0A80EB11CF801619150
:1004E0008F01CE010E9411012196CA15DB05B1F7DB
:1004F00061E06D0D81E090E00E941101F6E0EF0EE9
:10050000F11CC7010E941A01682FC7010E94110146
:10051000DF91CF911F910F91FF90EF90DF90BF90EF
:10052000AF90089583E790E00E948A008FE00E94D8
:10053000490080EC0E9449008EE30E945B00089510
:10054000BA98C29A84B7806484BF80E28BBF7894E3
:10055000089588E08AB986E880BD83E389B9089563
:100560005D9BFECF8CB908951F93CF93DF9330919D
:10057000620131110BC080E01EC09D9181919813E2
:1005800015C0E417F507C9F781E015C0FB0110811C
:10059000C82FD92F20E0AB014C5F5F4F88818113BA
:1005A00005C0DE011196FB013196E7CF2F5F24963F
:1005B0002313F4CF80E0DF91CF911F91089580EC59
:1005C0000E94490083E890E00E948A0080916301C4
:1005D0008F5C0E945B00809163018F5F8093630159
:1005E000813051F5109263018D9A87B38B6F87BB71
:1005F00083E886B980E687B98A9A8AE090E0959A7E
:10060000E7EAF1E63197F1F700C00000369A349B33
:10061000FECF24B125B128BB22FF02C0929A01C0AF
:1006200092989598E7EAF1E63197F1F700C000005B
:10063000019729F718BA09C0FFE32DE083E0F150D4
:1006400020408040E1F700C0000080EC0E9449009B
:1006500083E990E00E948A0081EC0E94490008959D
:100660000E94A00084EA90E00E948A0080EC0E9430
:10067000490084EB90E00E948A0008950F931F9335
:10068000CF93DF938C0181E00E94490082E00E94B9
:1006900049008CE00E94490081EC90E00E948A00B1
:1006A000E8010C5F1F4F89910E94B002C017D1076B
:1006B000D1F781E00E94490082E00E9449000E9437
:1006C0003003DF91CF911F910F91089590916101B7
:1006D000943090F48A3209F44BC0833209F444C058
:1006E000E92FF0E0E35AFE4F80839F5F9093610112
:1006F0000E945B0080E00895992381F1833291F498
:1007000080EC890F0E94490080E20E945B0080918A
:1007100061019FEF980F9093610180540E944900FE
:1007200080E008959430E1F48A32E1F46DE571E0FF
:1007300080916501909166010E94B402882341F086
:100740008DE591E00E943E031092610181E00895E1
:100750000E94DF021092610180E0089580E0089518
:1007600080E0089580E008959111CACF80E0089557
:100770009430E1F280E00895909166009D3299F402
:10078000809366000E94A00089EC90E00E948A009D
:1007900080EC0E9449008FE00E9449008EE30E9495
:1007A0005B0081E00895E0915C01E43090F48A32CE
:1007B00009F451C0833209F44AC091E09E0F90932E
:1007C0005C01F0E0E85AFE4F80830E945B0081E00C
:1007D0000895EE23B1F1833291F480EC8E0F0E94E4
:1007E000490080E20E945B0080915C019FEF980FBE
:1007F00090935C0180540E94490081E00895E430A8
:1008000011F58A3211F568E571E080ED890F0E94DB
:1008100014028DE2809366008091650190916601DB
:100820000E947F0685E691E00E945F01809362014D
:100830000E9430038CE00E94490010925C0180E02D
:10084000089581E0089581E0089581E00895E1111F
:10085000C4CF81E00895E430B1F281E008951F93A0
:10086000CF93DF93809162018823C1F110E0C12F03
:10087000D0E0CC0FDD1FCC0FDD1FE0916501F091C2
:100880006601EC0FFD1F80810E945B00E091650115
:10089000F0916601EC0FFD1F81810E945B00E091E9
:1008A0006501F0916601EC0FFD1F82810E945B00E3
:1008B0008091650190916601C80FD91F8B810E94BC
:1008C0005B0080E20E945B00123019F480EC0E9411
:1008D00049001F5F80916201181748F22FE78AE1F3
:1008E00096E0215080409040E1F700C000000E9457
:1008F0003003DF91CF911F910895E0915701E430CB
:1009000090F48A3209F44CC0833209F445C091E076
:100910009E0F90935701F0E0ED5AFE4F80830E94A6
:100920005B0081E00895EE2389F1833291F480EC3D
:100930008E0F0E94490080E20E945B008091570167
:100940009FEF980F9093570180540E94490081E0D7
:100950000895E430E9F48A32E9F483E591E00E94F5
:10096000500280916501909166010E947F0685E6A4
:1009700091E00E945F01809362010E9430038CE04D
:100980000E9449001092570180E0089581E0089587
:1009900081E0089581E00895E111C9CF81E00895D3
:1009A000E430D9F281E00895CF93DF93D82FC0913E
:1009B0005201CC2329F00E94BC038093520177C0DE
:1009C000C0915101CC2329F00E947D0480935101F4
:1009D0006EC00E94A000D333D1F028F4D13351F07F
:1009E000D23389F061C0D43309F461C0D63309F43D
:1009F00040C05AC088ED90E00E948A0081E0809358
:100A00005201C1E054C00E942F04C1E050C0809147
:100A100062018630D0F00E94A00083EE90E00E9438
:100A20008A0080EC0E94490082EF90E00E948A00D8
:100A30002FED83E994E0215080409040E1F700C021
:100A400000000E943003C1E032C081E08093510178
:100A50000E94A0008CEF90E00E948A0080EC0E942F
:100A600049008EE30E945B008FE00E944900C1E0D4
:100A70001EC00E94A0008CE091E00E948A000E94AB
:100A8000370185E691E00E945F01809362012FE3C8
:100A90008DE093E0215080409040E1F700C00000DD
:100AA0000E943003C1E003C00E943003C1E08C2FDC
:100AB000DF91CF9108951F920F920FB60F921124DC
:100AC0002F933F934F935F936F937F938F939F9356
:100AD000AF93BF93EF93FF9380916401882319F044
:100AE000109264011AC00E94B000909150019111BF
:100AF00005C00E946603809350010DC00E94D4047B
:100B00008093500110926301811105C00E949202EE
:100B10008DE20E94B0020E94A700FF91EF91BF9169
:100B2000AF919F918F917F916F915F914F913F9185
:100B30002F910F900FBE0F901F901895CF9381E0CB
:100B40008093640180E90E9449008CE191E00E9459
:100B50008A0080ED0E94490086E391E00E948A00AD
:100B600080916401811113C00FC08BE792E9019756
:100B7000F1F700C0000088E10E944900C15021F057
:100B8000809164018111F1CF0E94A0000BC08BE71E
:100B900092E90197F1F700C0000088E10E94490046
:100BA000C7E2EECFCF9108950E94A9020E946D0086
:100BB0000E94A70085E691E00E945F018093620198
:100BC0000E94A0020E949E050E949202FFCF0F93F6
:100BD0001F93CF93DF938230910510F482E090E071
:100BE000E0916901F0916A0120E030E0A0E0B0E01E
:100BF000309719F1408151810281138148175907BB
:100C0000C8F08417950769F4109731F012960C9389
:100C1000129713961C9327C00093690110936A01E1
:100C200022C02115310519F04217530718F49A0113
:100C3000BD01EF01DF01F801DBCF21153105F9F02E
:100C4000281B390B2430310580F48A819B81611582
:100C5000710521F0FB019383828304C090936A01A4
:100C600080936901FE01329644C0FE01E20FF31F3A
:100C70008193919322503109398328833AC020917E
:100C8000670130916801232B41F42091620030917B
:100C900063003093680120936701209160003091D8
:100CA00061002115310541F42DB73EB74091640034
:100CB00050916500241B350BE0916701F0916801AC
:100CC000E217F307A0F42E1B3F0B2817390778F023
:100CD000AC014E5F5F4F2417350748F04E0F5F1F82
:100CE00050936801409367018193919302C0E0E0C3
:100CF000F0E0CF01DF91CF911F910F910895CF9335
:100D0000DF93009709F481C0FC01329713821282AD
:100D1000A0916901B0916A01109781F4208131811D
:100D2000820F931F209167013091680128173907BE
:100D300051F5F0936801E093670167C0ED0120E091
:100D400030E0CE17DF0740F44A815B819E014115F8
:100D50005105F1F0EA01F5CFD383C283408151817F
:100D6000840F951FC817D90759F488819981840F7A
:100D7000951F0296918380838A819B8193838283CE
:100D80002115310529F4F0936A01E09369013DC012
:100D9000E901FB83EA8349915991C40FD51FEC17F0
:100DA000FD0761F480819181840F951F0296E9010E
:100DB00099838883828193819B838A83E0E0F0E03A
:100DC00012968D919C911397009719F0FD01DC010B
:100DD000F7CF8D919C9111979D012E5F3F4F820F10
:100DE000931F20916701309168012817390769F432
:100DF000309729F410926A011092690102C013829F
:100E00001282B0936801A0936701DF91CF9108959A
:040E1000F894FFCF84
:100E140000006B0120002D31323334353637383938
:100E24002A3023656E7465722070617373776F72F4
:100E3400643A0057524F4E472050415353574F5234
:100E44004420003E2020202020202020202020207C
:100E540020202000312D6368616E676520322D7378
:100E6400686F7700332D61646420342D657869746C
:100E74000057656C636F6D6500656E746572206EF6
:100E84006577206F6E653A007768696368206F6ED6
:100E9400653F0063616E277420616464206D6F7226
:100EA400650070617373776F72647300656E746547
:100EB40072206E657720706173733A007265736592
:100EC40074696E6720656570726F6D005368616642
:100ED4006167682053657065687220202034303162
:100EE4003235323033004B6F75726F7368204A614C
:100EF4006D736869646920343031323035323300BF
:00000001FF
